:0809070002080001020A0001D0
:03001B000208EEEA
:1008EE00C0E0E50945087004C2B7800AE509640155
:0908FE0045087002B2B7D0E032E7
:03000B0002088C5C
:10088C00C0E0758CFB758AAEC28DE5094508701DFC
:10089C00E50B6421450A700BF508750901F50AF59D
:1008AC000B8016050BE50B7010050A800CE509642E
:0C08BC000145087004F508F509D0E03291
:1008C800758929758CFB758AAEC28DD28C758DE8B9
:1008D800D28ED2AFD2A9D2AB20B304C2A080F93055
:0608E800B3F6D2A080F27D
:03000000020800F3
:0C080000787FE4F6D8FD75810B020847F4
:10080C000208C8E493A3F8E493A34003F68001F232
:10081C0008DFF48029E493A3F85407240CC8C333ED
:10082C00C4540F4420C8834004F456800146F6DFBC
:10083C00E4800B0102040810204080900907E47E3C
:10084C00019360BCA3FF543F30E509541FFEE493B1
:10085C00A360010ECF54C025E060A840B8E493A378
:10086C00FAE493A3F8E493A3C8C582C8CAC583CAA3
:10087C00F0A3C8C582C8CAC583CADFE9DEE780BE5B
:01090F0000E7
:00000001FF
